:020000040800F2
:10000000F00400209D0100085B1400088B1000081C
:1000100059140008A9020008391600080000000061
:10002000000000000000000000000000351500087E
:10003000AB020008000000007D140008371500081E
:10004000B7010008B7010008B7010008B7010008B0
:10005000B7010008B7010008AD020008B7010008A9
:10006000B7010008B7010008B7010008B701000890
:10007000B7010008B7010008B7010008B701000880
:10008000B7010008B7010008B7010008B701000870
:10009000B7010008B7010008B7010008B701000860
:1000A000B7010008B7010008B7010008B701000850
:1000B000B7010008B7010008B7010008B701000840
:1000C000B7010008B7010008B7010008B701000830
:1000D000B7010008B7010008B7010008B701000820
:1000E000B7010008B7010008B7010008B701000810
:1000F000B7010008B7010008B7010008B701000800
:10010000B7010008B7010008B7010008B7010008EF
:10011000B7010008B7010008B7010008B7010008DF
:10012000B7010008B7010008B7010008B7010008CF
:10013000B7010008B7010008B7010008B7010008BF
:10014000B7010008B7010008B7010008B7010008AF
:10015000B7010008B7010008B7010008B70100089F
:10016000B7010008B7010008B7010008B70100088F
:10017000B7010008B7010008B7010008000000003F
:10018000B7010008B7010008DFF80CD000F07AF8DA
:100190000048004759160008F00400200648804730
:1001A00006480047FEE7FEE7FEE7FEE7FEE7FEE75C
:1001B000FEE7FEE7FEE7FEE7E51500088901000817
:1001C0002DE9F05F0546002092469B46884606468C
:1001D000814640241BE0284641464746224600F01F
:1001E00041F853465A46C01A914110D31146184659
:1001F000224600F028F82D1A67EB01084F462246E8
:100200000120002100F01FF817EB00094E41201ECD
:10021000A4F10104DFDC484631462A464346BDE8E6
:10022000F09F40EA01039B0703D009E008C9121FB1
:1002300008C0042AFAD203E011F8013B00F8013BA0
:10024000521EF9D27047202A04DB203A00FA02F14C
:10025000002070479140C2F1200320FA03F31943B4
:1002600090407047202A04DB203A21FA02F0002156
:10027000704721FA02F3D040C2F1200291400843B6
:1002800019467047064C074D06E0E06840F0010350
:1002900094E8070098471034AC42F6D3FFF778FF94
:1002A00094170008B4170008FEE77047012000F01B
:1002B00007B80000014901200870704700000020C5
:1002C000044910B50A68024202D00860FFF7F2FF45
:1002D00010BD0000143C01402DE9F84FDFF87CB15F
:1002E00000224FF001084FF0030A4FF00F090BF105
:1002F000040E00BF0B6808FA02F42340A3426ED13B
:100300004D68022D01D0122D0ED1D50800EB850CC1
:10031000DCF820505607F70E09FA07F6B5430E69C8
:10032000BE402E43CCF82060066855000F790AFACB
:1003300005FC07F0030726EA0C06AF4037430760C9
:100340004E68012E05D0022E03D0112E01D0122EA0
:100350000ED18668CF6826EA0C06AF403743876027
:100360004668A6430C79C4F30014944034434460B7
:10037000C6688C6826EA0C06AC403443C4604C68FE
:10038000E40065D5364C256845F480452560246831
:1003900022F0030504F480440094324C2E19D6F860
:1003A000084895072F0F09FA07F5AC432E4DA842D0
:1003B00001D1002524E02D4DA84201D101251FE0E7
:1003C0002B4DA84201D102251AE02A4DA84201D1A5
:1003D000032515E0284DA84202D1042510E037E09E
:1003E000264DA84201D105250AE0254DA84201D19C
:1003F000062505E0234DA84201D1072500E0082588
:10040000BD402543C6F80858DBF800405D464E68FD
:100410009C43F60300D51C432C60DEF80040754673
:100420004E689C43B60300D51C432C600B4D083529
:100430002C684E689C43F60200D51C432C60074D87
:100440000C352C684E689C43B60200D51C432C60CA
:10045000521C102AFFF44EAFBDE8F88F003C01405B
:1004600044380240003001400000024000040240D5
:1004700000080240000C024000100240001402403C
:1004800000180240001C024042694A404261704725
:100490000AB1816170470904FBE7000001488068E8
:1004A0007047000020000020024881680278114453
:1004B00081607047200000200B4810B5016841F4AE
:1004C00000710160016841F480610160016841F4DC
:1004D00080710160032000F097F8002000F006F81A
:1004E00000F024F8002010BD003C024070B50D4D16
:1004F00004464FF47A712878B1FBF0F00A49096894
:10050000B1FBF0F000F0A9FD48B9102C07D2002291
:100510002146501E00F058F800206C6070BD01208C
:1005200070BD0000200000202C0000201F4808B5EE
:10053000016841F480410160006800F4804000904F
:100540001A48001F016841F080510160006800F006
:1005500080500090072000F057F8002211466FF0FD
:100560000B0000F031F8002211466FF00A0000F095
:100570002BF8002211466FF0090000F025F8002248
:100580001146501F00F020F800221146101F00F005
:100590001BF800221146901E00F016F80022BDE85C
:1005A00008401146501E00F00FB8000044380240C9
:1005B00000F01F02012191404009800000F1E0207D
:1005C000C0F8001170470000F0B40E4B1B680C46D9
:1005D000C3F30223C3F10705042D00D90425191D17
:1005E000072901D2002300E0DB1E012606FA05F1EF
:1005F000491E214099409E40761E16403143F0BC72
:1006000000F02CBF0CED00E0064900F0070208687E
:100610004FF6FF03184040EA0220034A10430860E7
:10062000704700000CED00E00000FA052DE9F047EE
:100630000E46050065D0DFF81481D8F80000F7B247
:1006400000F00F00B04207D288F80070D8F8000020
:1006500000F00F00B04254D128683D4C810712D5FC
:10066000400703D5206840F4E05020602878000758
:1006700003D5206840F4604020602068A96820F01D
:10068000F000084320602878C0072DD03049686802
:100690000839012812D0022813D0032811D0096884
:1006A000890700292DDA216821F003010143216027
:1006B000FFF7F4FE814641F2883A0EE009688903AB
:1006C000EFE709688901ECE7FFF7E8FEA0EB090115
:1006D000514502D90320BDE8F0872068696800F021
:1006E0000C00B0EB810FEFD1D8F80010404601F0BC
:1006F0000F01B14207D90770006800F00F00B04247
:1007000001D00120E7E72878400705D52068E9688F
:1007100020F4E050084320602878000706D52068C0
:10072000296920F4604040EAC100206000F01CF814
:100730002168084AC1F30311515CC84006490860AA
:100740000020FFF7D3FE0020C5E70000003C024078
:1007500008380240841700082C0000200148006877
:10076000704700002C000020154810B5006810F0FC
:100770000C02144813D04110042A0FD0082A0ED1BD
:100780000F4C241F2268236802F03F025B0207D54A
:100790002068C0F38810A0FB010106E0084610BDE8
:1007A0002168C1F38811A1FB00010023FFF708FDB8
:1007B0002168C1F30141491C4900B0FBF1F010BDB3
:1007C000083802400024F4002DE9F84F050076D0E7
:1007D0002878DFF8F8B2BE4CC00749D0DBF800102B
:1007E0005846C1F38101012908D00068C0F3810097
:1007F00002280AD1201D0068400206D52068800327
:1008000036D568680028E2D032E06868B0F5803FED
:1008100010D0B0F5A02F206810D020F480302060D8
:10082000206820F4802020606868A0B1FFF736FEC1
:1008300006460CE0206840F48030F4E740F4802065
:100840002060F7E7FFF72AFE801B642873D8206832
:100850008003F7D50CE0FFF721FE064605E000BF58
:10086000FFF71CFE801B6428F0D820688003F7D4B3
:100870002878DFF8608280074FF000093ED5DBF86A
:100880000010584611F00C0F09D00068C0F3810029
:1008900002280BD18D48001F0068400206D4206852
:1008A000800715D5E868012809D111E0E868B8B1DA
:1008B0000120C8F80000FFF7F1FD064605E002E15F
:1008C000FFF7ECFD801B0228C0D820688007F7D511
:1008D0002068296920F0F80040EAC10020600DE09E
:1008E000C8F80090FFF7DAFD064604E0FFF7D6FDF2
:1008F000801B02281FD820688007F7D428780007BB
:1009000022D5724E744869696C3671B1012101605B
:10091000FFF7C4FD074604E0FFF7C0FDC01B022837
:1009200009D830688007F7D50EE0C0F80090FFF7CF
:10093000B5FD074605E083E0FFF7B0FDC01B0228C8
:100940007ED830688007F7D42878400768D5DFF86C
:100950007CA100270AF1380ADAF80000C0000BD4A5
:10096000DAF8001041F08051CAF80010DAF80000FF
:10097000012700F080500090584E3068C00510D418
:10098000306840F480703060FFF788FD009005E02B
:10099000FFF784FD0099401A022851D83068C0053D
:1009A000F6D54A4EA868683601280FD00528306869
:1009B00010D020F001003060306820F0040030607A
:1009C000A868B8B1FFF76AFD00900FE0306840F00A
:1009D0000100F4E740F004003060F7E7FFF75EFD48
:1009E0000099411A41F28830814264D8306880070A
:1009F000F4D50EE0FFF752FD009007E0FFF74EFD43
:100A00000099411A41F28830814254D830688007F9
:100A1000F4D42FB1DAF8001021F08051CAF8001098
:100A2000A869C0B3DBF80010C1F3810102294AD0E4
:100A30000228484607D0C8F86000FFF72FFD00E005
:100A400039E005463AE04746C8F86000FFF726FD62
:100A5000064604E0FFF722FD801B02282BD8206801
:100A60008001F7D4D5E907010843A96A1C4A49085F
:100A700002EB01416A6A41EA8211084395F82C10A1
:100A800040EA01611148001F016001203866FFF74C
:100A900005FD054605E014E0FFF700FD401B0228B8
:100AA00009D820688001F7D50BE000BFFFF7F6FCFE
:100AB000401B022802D90320BDE8F88F206880017E
:100AC000F4D40020F8E70120F6E7000008380240DF
:100AD0000038024000004742800E4742007000404C
:100AE0000000FFFF70B5040005D00025A56294F852
:100AF000510010B106E0012070BD84F8505020462E
:100B000000F030F8022084F851002068016821F0DC
:100B100040010160D4E901010843D4E90312114303
:100B2000084361690843218B01F400710843E169BE
:100B30000843216A0843A16A084321680860A06944
:100B4000042101EA1040616A084321684860206876
:100B5000C16921F40061C1616565012084F851001B
:100B6000002070BD00B500680E4987B0884216D1DC
:100B70000D480021026842F480520260006800F4CF
:100B800080500590E02000900220CDE90101032073
:100B900003900520049069460448FFF79DFB07B0C9
:100BA00000BD000000300140443802400000024017
:100BB0002DE9F84F044640680026984617460D4632
:100BC0004FF00409B0F5827F01D1A06890B194F88C
:100BD0005000012819D04FF0010B84F850B0FFF7F6
:100BE0005DFC009094F851004FF0000A01280ED0EF
:100BF00002267FE084F8519013460A462046CDF83D
:100C0000008000F031F9BDE8F88F0220FBE7002DED
:100C10006FD0002F6DD084F85190C4F854A0A56314
:100C2000A787E787C4F830A0A4F834A0A4F836A0BA
:100C3000C4F840A0C4F844A0A0684FF40047B842EC
:100C400004D12068016821F48041016020680168B6
:100C5000490603D4016841F040010160E068B8B181
:100C600033E020688168C90706D0007B05F8010BD6
:100C7000E08F401EE0870BE0B8F1000F23D0B8F101
:100C8000FF3F05D0FFF70AFC0099411A41451AD2EF
:100C9000E08F0028E5D11BE020688168C90706D0F5
:100CA000C06825F8020BE08F401EE0870DE0B8F128
:100CB000000F08D0B8F1FF3F07D0FFF7EFFB009916
:100CC000411A414501D3032614E0E08F0028E3D107
:100CD0006068B0F5827F0AD1A068B84202D0B0F552
:100CE000806F04D12068016821F040010160606DCF
:100CF00000B1012684F851B084F850A0304682E754
:100D00002DE9F84F044690F8500000269946174602
:100D10000D4601280DD04FF0010B84F850B0FFF7BD
:100D2000BDFB804694F85100B246012804D002264B
:100D300094E00220BDE8F88F002D7BD0002F79D001
:100D4000032084F85100C4F854A02563A786E786E1
:100D5000C4F838A0A4F83CA0A4F83EA0C4F844A06D
:100D6000C4F840A0A068B0F5004F04D12068016825
:100D700041F48041016020680168490603D401689C
:100D800041F040010160E068B0F5006F606804D098
:100D900030B3E08E012823D03EE010B1E08E012870
:100DA0001AD135F8021B206805E0206881688907A0
:100DB00006D535F8021BC160E08E401EE0860BE0D0
:100DC000B9F1000F34D0B9F1FF3F05D0FFF766FB52
:100DD000A0EB080149452BD2E08E0028E5D11EE0AA
:100DE000216815F8010B087306E0206881688907FF
:100DF00006D515F8011B0173E08E401EE0860BE05E
:100E0000B9F1000F14D0B9F1FF3F05D0FFF746FB51
:100E1000A0EB080149450BD2E08E0028E5D14B46F6
:100E2000012202212046CDF8008000F038FB10B1ED
:100E3000032613E011E042464946204600F01FFB1E
:100E400018B101262020606508E0A06818B9206864
:100E5000C16880680090606D00B1012684F851B0CF
:100E600084F850A0304665E72DE9F84F044690F825
:100E7000500000260A9F9A4693460D464FF00108FF
:100E800001280ED0012084F85000FFF707FB8146AF
:100E900094F85100616801280CD0B1F5827F07D128
:100EA00002E00220BDE8F88FA16809B9042801D04A
:100EB0000226BDE055B1BBF1000F07D0BAF1000F1B
:100EC00004D094F85100012802D004E00126AFE0DC
:100ED000052084F8510000206065C4F838B0A4F8FB
:100EE0003EA0A4F83CA02563A4F836A0A4F834A042
:100EF0002064606420680168490603D4016841F0F9
:100F000040010160E068B0F5006F606804D0E8B3AC
:100F1000E08E01283BD06AE010B1E08E01282ED18E
:100F2000216835F8020BC860E08E401EE08626E09E
:100F3000B8F1000F0DD0E08E58B1206881688907A4
:100F400007D535F8021BC160E08E401EE0864FF0E9
:100F50000008E08F58B120688168C90707D0C068D1
:100F60002BF8020BE08F401EE0874FF00108781C41
:100F700005D0FFF793FAA0EB0900B84246D2E08E05
:100F80000028D5D1E08F0028D2D136E0FFE72168D4
:100F900015F8010B0873E08E401EE08627E000BFC5
:100FA000B8F1000F0DD0E08E58B120688168890734
:100FB00007D515F8011B0173E08E401EE0864FF047
:100FC0000008E08F58B120688168C90707D0C06861
:100FD0000BF8010BE08F401EE0874FF00108781CF2
:100FE00005D0FFF75BFAA0EB0900B8420ED2E08E05
:100FF0000028D5D1E08F0028D2D13B460122022122
:101000002046CDF8009000F04AFA08B103260FE020
:101010004A463946204600F032FA18B1012620200F
:10102000606505E0A06818B92068C1688068009014
:10103000012084F85100002084F85000304631E748
:101040004FF0E0210428086903D020F00400086173
:10105000704740F00400FAE7704710B5401EB0F149
:10106000807F01D3012010BD4FF0E02460610F218B
:10107000601700F0F3F90020A06107202061002034
:1010800010BD10B5FFF7E8FF10BDFEE73EB5044602
:1010900002226946282000F0C3F89DF800009DF860
:1010A0000110022200EB0120ADF8040069462A205D
:1010B00000F0B6F89DF800009DF80110022200EB48
:1010C0000120ADF8060069462C2000F0A9F89DF833
:1010D00000009DF8011000EB0120ADF80800019818
:1010E0002060BDF80800A0803EBD00001CB5684629
:1010F000FFF7CCFFBDF90000BDF9021000EE100AA9
:101100001348B8EEC00A90ED001AD0ED041A90ED25
:10111000052A60EE010A90ED010A10EEA10A00EE28
:10112000901ABDF90410F8EEE00A60EE811AD0EDD5
:10113000020A51EE820A01EE901A90ED062AF8EEAC
:10114000E11A61EE811A90ED031A11EE821A1CBDAC
:101150000400002038B50C4600218DF8001001462F
:1011600058222748FFF75DF8E078012200F00700D9
:101170008DF80000217801F0F00101438DF8001096
:101180006946202000F07AF8A078617800F0C0006D
:1011900001F0380101438DF8001001226946242036
:1011A00000F06CF8207938B188208DF80000012219
:1011B0006946232000F062F861781248102916D0A1
:1011C00003DC39B108290CD107E0182912D02029F5
:1011D00007D112E09FED0C0A01E09FED0C0A80EDB3
:1011E000000A012208210A48FFF752F938BD9FED95
:1011F000090AF4E79FED080AF1E79FED080AEEE718
:1012000094000020040000208FC2753D8FC2F53D80
:1012100000100240EC51383E8FC2753E48E13A3F23
:10122000F8B540F08000134E15460C468DF80000CE
:10123000002208213046FFF72BF90A2301226946D4
:101240000D48FFF75DFD0A232A4669460A48FFF765
:10125000AFFC012208213046FFF71AF900206A4648
:1012600005F0030103E0135C2354401CC0B281422B
:10127000F9D8F8BD0010024094000020F8B50E4ED9
:1012800014460D468DF80000002208213046FFF775
:10129000FFF80A23012269460848FFF731FD0A23B7
:1012A000224629460548FFF72BFD0122082130463A
:1012B000FFF7EEF8F8BD0000001002409400002097
:1012C00030EE801AF6EE001A064830EEC00A21EE23
:1012D000211ADFED050A80ED011A80EE801A80EDFB
:1012E000041A7047040000200000FA4430EE801A0F
:1012F000F6EE001A064830EEC00A21EE211ADFEDA4
:10130000050A80ED021A80EE801A80ED051A7047FA
:10131000040000200000FA4430EE801AF6EE001AB5
:10132000064830EEC00A21EE211ADFED050A80EDF5
:10133000031A80EE801A80ED061A70470400002020
:101340000000FA442DE9F0412E4886B000240168DF
:1013500041F010010160016801F010010591016880
:1013600041F080010160016801F080010591016890
:1013700041F001010160016801F00101059101687E
:1013800041F0080101600068DFF87C8000F008008F
:101390000590002208214046FFF77AF81B4F4FF4D2
:1013A0007046002231463846FFF772F80820009058
:1013B0000125CDE90154694640460394FEF78CFFB0
:1013C000CDE90054694612480294FEF785FF009665
:1013D000CDE90154694638460394FEF77DFF0D4878
:1013E0000095CDE9010469464046FEF775FF0022ED
:1013F00011460620FFF7E8F80620FFF7D9F806B0F7
:10140000BDE8F0813038024000100240000C02407C
:1014100000000240000011100E4810B50C49016098
:101420004FF48271416000218160C1604FF400720D
:101430000161C0E905121022C0E907214162816201
:101440000A21C162FFF74EFB002800D0FEE710BD65
:101450000030014030000020FEE770470907090E08
:10146000002806DA00F00F0000F1E02080F8141DDB
:10147000704700F1E02080F800147047704738B5DD
:101480000B46009204460022802100F008F8002854
:1014900004D0606D40F020006065032038BD2DE968
:1014A000F0411D4617460E460446DDF8188035E02B
:1014B000681C33D02DB1FEF7F1FFA0EB0800A84265
:1014C0002CD32068416821F0E00141606068B0F5EC
:1014D000827F0BD1A068B0F5004F02D0B0F5806FCD
:1014E00004D12068016821F040010160A06AB0F5D4
:1014F000005F0AD1206801684DF6FF72114001605B
:101500002068016841F400510160012084F8510015
:10151000002084F850000320BDE8F0812068806836
:1015200036EA000004D00020B842C1D10020F3E721
:101530000120F9E7704710B5FEF7B6FFBDE810408F
:10154000FFF79FBD30B5254893B00025016841F0F5
:1015500080510160006800F08050119020480168BF
:1015600041F4804101600068022400F48040119041
:1015700001200090000401908001CDE90640082080
:1015800008904FF4A870CDE9090407200B90684635
:10159000FFF71AF900B1FEE70CA90F2081E831002E
:1015A0004FF4A0500F904FF48050109005210CA8DC
:1015B000FFF73CF800B1FEE7FFF7D0F84FF47A717F
:1015C000B0FBF1F0FFF749FD0420FFF739FD0022E1
:1015D0001146501EFEF7F8FF13B030BD40380240F0
:1015E000007000401048016841F4700101600F482C
:1015F000016841F0010101600C4A002108321160CC
:1016000002680B4B1A400260031D0A4A1A60026806
:1016100022F48022026005480C300160024958061D
:10162000803908607047000088ED00E00038024013
:10163000FFFFF6FE10300024FEE702E008C8121F8C
:1016400008C1002AFAD170477047002001E001C1AB
:10165000121F002AFBD170472DED028B82B0FEF7DE
:101660002BFFFFF76FFFFFF76DFEFFF7D5FE402062
:101670008DF8000008208DF80100C0208DF80200D0
:1016800007208DF8030001208DF8040069463348D7
:10169000FFF760FDDFED320A9FED320AFFF710FE23
:1016A0009FED318A9FED310AF0EE480AFFF71EFEEA
:1016B000F0EE480A9FED2E0AFFF72EFE274C2D4F25
:1016C0002D4D2E4EDFF8B8B04FF480584FF48049BE
:1016D0004FF4004A583438780128FCD10020387083
:1016E000FFF704FD1D48583080EC030A10EE100A85
:1016F000A84204D941465846FEF7C6FE04E000223F
:1017000041465846FEF7C4FE2068B04204DD494613
:101710005846FEF7B9FE04E0002249465846FEF757
:10172000B7FE6068A84204D951465846FEF7ACFEA1
:1017300004E0002251465846FEF7AAFE6068B04217
:1017400005DD4FF400515846FEF79EFEC3E7002228
:101750004FF400515846FEF79BFEBCE730000020D6
:101760000000754400007AC40000824400007FC479
:10177000000066C4000000200000FAC30000FA4325
:10178000000C024000000000000000000102030401
:1017900006070809B4170008000000203000000008
:1017A0003A160008E417000830000020C0040000CA
:1017B0004A160008000000008FC2753D00000000BE
:1017C00000000000000000000000803F0000803F9B
:1017D0000000803F01000000100000000000000039
:0417E0000024F400ED
:040000050800018965
:00000001FF
